{
  "_format": "hh-sol-artifact-1",
  "contractName": "Greeter",
  "sourceName": "contracts/Greeter.sol",
  "abi": [
    {
      "inputs": [],
      "name": "addGreet",
      "outputs": [],
      "stateMutability": "payable",
      "type": "function"
    },
    {
      "inputs": [
        {
          "internalType": "address",
          "name": "person",
          "type": "address"
        }
      ],
      "name": "getGreetCount",
      "outputs": [
        {
          "internalType": "uint256",
          "name": "",
          "type": "uint256"
        }
      ],
      "stateMutability": "view",
      "type": "function"
    },
    {
      "inputs": [
        {
          "internalType": "address",
          "name": "person",
          "type": "address"
        }
      ],
      "name": "getGreets",
      "outputs": [
        {
          "internalType": "uint256",
          "name": "",
          "type": "uint256"
        }
      ],
      "stateMutability": "view",
      "type": "function"
    },
    {
      "inputs": [
        {
          "internalType": "uint256",
          "name": "amount",
          "type": "uint256"
        }
      ],
      "name": "withdrawGreet",
      "outputs": [],
      "stateMutability": "payable",
      "type": "function"
    }
  ],
  "bytecode": "0x608060405234801561001057600080fd5b5061072e806100206000396000f3fe60806040526004361061003f5760003560e01c80630d0de4ac14610044578063274a577f146100605780637bc86f6c1461006a57806398c2cb6c146100a7575b600080fd5b61005e60048036038101906100599190610533565b6100e4565b005b610068610206565b005b34801561007657600080fd5b50610091600480360381019061008c91906105be565b61030c565b60405161009e91906105fa565b60405180910390f35b3480156100b357600080fd5b506100ce60048036038101906100c991906105be565b610355565b6040516100db91906105fa565b60405180910390f35b806000803373ffffffffffffffffffffffffffffffffffffffff1673ffffffffffffffffffffffffffffffffffffffff16815260200190815260200160002054101561012f57610203565b806000803373ffffffffffffffffffffffffffffffffffffffff1673ffffffffffffffffffffffffffffffffffffffff168152602001908152602001600020546101799190610644565b6000803373ffffffffffffffffffffffffffffffffffffffff1673ffffffffffffffffffffffffffffffffffffffff168152602001908152602001600020819055503373ffffffffffffffffffffffffffffffffffffffff166108fc829081150290604051600060405180830381858888f19350505050158015610201573d6000803e3d6000fd5b505b50565b61020f3361039d565b61021834610436565b346000803373ffffffffffffffffffffffffffffffffffffffff1673ffffffffffffffffffffffffffffffffffffffff16815260200190815260200160002060008282546102669190610678565b9250508190555060018060003373ffffffffffffffffffffffffffffffffffffffff1673ffffffffffffffffffffffffffffffffffffffff16815260200190815260200160002060008282546102bc9190610678565b9250508190555061030a6000803373ffffffffffffffffffffffffffffffffffffffff1673ffffffffffffffffffffffffffffffffffffffff16815260200190815260200160002054610436565b565b6000600160008373ffffffffffffffffffffffffffffffffffffffff1673ffffffffffffffffffffffffffffffffffffffff168152602001908152602001600020549050919050565b60008060008373ffffffffffffffffffffffffffffffffffffffff1673ffffffffffffffffffffffffffffffffffffffff168152602001908152602001600020549050919050565b610433816040516024016103b191906106dd565b6040516020818303038152906040527f2c2ecbc2000000000000000000000000000000000000000000000000000000007bffffffffffffffffffffffffffffffffffffffffffffffffffffffff19166020820180517bffffffffffffffffffffffffffffffffffffffffffffffffffffffff83818316178352505050506104cf565b50565b6104cc8160405160240161044a91906105fa565b6040516020818303038152906040527ff82c50f1000000000000000000000000000000000000000000000000000000007bffffffffffffffffffffffffffffffffffffffffffffffffffffffff19166020820180517bffffffffffffffffffffffffffffffffffffffffffffffffffffffff83818316178352505050506104cf565b50565b60008151905060006a636f6e736f6c652e6c6f679050602083016000808483855afa5050505050565b600080fd5b6000819050919050565b610510816104fd565b811461051b57600080fd5b50565b60008135905061052d81610507565b92915050565b600060208284031215610549576105486104f8565b5b60006105578482850161051e565b91505092915050565b600073ffffffffffffffffffffffffffffffffffffffff82169050919050565b600061058b82610560565b9050919050565b61059b81610580565b81146105a657600080fd5b50565b6000813590506105b881610592565b92915050565b6000602082840312156105d4576105d36104f8565b5b60006105e2848285016105a9565b91505092915050565b6105f4816104fd565b82525050565b600060208201905061060f60008301846105eb565b92915050565b7f4e487b7100000000000000000000000000000000000000000000000000000000600052601160045260246000fd5b600061064f826104fd565b915061065a836104fd565b92508282101561066d5761066c610615565b5b828203905092915050565b6000610683826104fd565b915061068e836104fd565b9250827fffffffffffffffffffffffffffffffffffffffffffffffffffffffffffffffff038211156106c3576106c2610615565b5b828201905092915050565b6106d781610580565b82525050565b60006020820190506106f260008301846106ce565b9291505056fea264697066735822122009f5ba674182458ea08c7dfc5104934738830481771d354105401a236dcc68ef64736f6c634300080c0033",
  "linkReferences": {},
  "deployedLinkReferences": {}
}